:020000040000FA
:06000000A1EF00F0120068
:020006000000F8
:08000800060EF66E000EF76E05
:10001000000EF86E00010900F550856F0900F550DB
:10002000866F03E1856701D03DD00900F550806FF0
:100030000900F550816F0900F550826F0900090031
:10004000F550E96E0900F550EA6E09000900090053
:10005000F550836F0900F550846F09000900F6CF51
:1000600087F0F7CF88F0F8CF89F080C0F6FF81C025
:10007000F7FF82C0F8FF0001835302E1845307E0D9
:100080000900F550EE6E8307F8E28407F9D787C0C0
:10009000F6FF88C0F7FF89C0F8FF00018507000E52
:0600A000865BBFD71200D1
:0A00A600070EB46E100E926E010EEC
:1000B000936E946A956A080E966E0F0EC16E1200CA
:1000C000F2DF8192E66881EC00F0E5528182E66819
:1000D00081EC00F0E5528194E66881EC00F0E55295
:1000E0008184E66881EC00F0E5528196E66881EC57
:1000F00000F0E5528186E66881EC00F0E552E1D738
:020100001200EB
:0E010200FF0EE350026E480E01D04C0EE76E69
:10011000E72EFED7E76AE72EFED7022EF7D70000BC
:020120001200CB
:0E012200000EF36E00EE00F0060E01D8120083
:10013000EA6002D0EE6AFCD7F350E9601200EE6A82
:02014000FCD7EA
:0E01420015EE00F025EE00F0F86A019C04ECCA
:0E01500000F0AFEC00F060EC00F0FBD7120006
:02015E0012008D
:020000040030CA
:0100010006F8
:0100020019E4
:010003001EDE
:010005008179
:010006008178
:00000001FF
