:020000040000FA
:060000009CEF02F012006B
:0A0006000100720500008A000000EE
:0400100004000000E8
:0C001400070EB46E100E926E010E936E7B
:100020000F0E816E946A956A080E966E0F0EC16E61
:100030001200F0DFFFD71200D9CFE6FFE1CFD9FFE2
:10004000FD0EDBCF06F0FE0EDBCF07F0040E061828
:1000500001E1075058E0030E061801E107503BE0AC
:10006000020E061801E107501EE0010E061801E11C
:10007000075001E060D08198819A819C818EFB0EAF
:10008000DBCFE6FFFC0EDBCFE6FF5ED8E552E552A4
:10009000010EE66EAAEC02F0E552E668E66854D876
:1000A000E552E55248D08198819A818C819EFB0E61
:1000B000DBCFE6FFFC0EDBCFE6FF46D8E552E5528C
:1000C000010EE66EAAEC02F0E552E668E6683CD85E
:1000D000E552E55230D08198818A819C819EFB0E49
:1000E000DBCFE6FFFC0EDBCFE6FF2ED8E552E55274
:1000F000010EE66EAAEC02F0E552E668E66824D846
:10010000E552E55218D08188819A819C819EFB0E30
:10011000DBCFE6FFFC0EDBCFE6FF16D8E552E5525B
:10012000010EE66EAAEC02F0E552E668E6680CD82D
:10013000E552E55200D0010EE66EAAEC02F0E5525F
:10014000E552E7CFD9FF1200D9CFE6FFE1CFD9FFC3
:10015000FD0EDBCF06F0FE0EDBCF07F0E8680618D9
:1001600002E1E868071864E0065001E1075057E033
:10017000090E061801E1075051E0080E061801E1CA
:1001800007504BE0070E061801E1075045E0060E48
:10019000061801E107503FE0050E061801E107507F
:1001A00039E0040E061801E107502BE0030E061893
:1001B00001E107501DE0020E061801E107500FE0B3
:1001C000010E061801E1075001E03BD083908382C5
:1001D000838483968398839A839C839E32D0838082
:1001E0008382839483868388839A838C839E29D099
:1001F00083808382838483868398839A838C839E7F
:1002000020D083908382838483968398838A838C8F
:10021000839E17D016D015D014D013D012D083805F
:100220008382838483868388838A839C839E09D088
:1002300083908392839483968398839A839C839EEE
:1002400000D0E552E7CFD9FF1200D9CFE6FFE1CFCA
:10025000D9FFFD0EDBCF06F0FE0EDBCF07F0065018
:1002600001E1075067E0090E061801E1075061E05F
:10027000080E061801E107505BE0070E061801E1C1
:10028000075055E0060E061801E107504FE0050E35
:10029000061801E1075049E0040E061801E1075075
:1002A00037E0030E061801E1075025E0020E06189C
:1002B00001E1075013E0010E061801E1075001E0CB
:1002C0003AD08198819A819C818E839083828384A5
:1002D00083968398839A839C839E2DD08198819A5C
:1002E000818C819E83808382839483868388839A92
:1002F000838C839E20D08198818A819C819E83807B
:100300008382838483868398839A838C839E13D08D
:100310008188819A819C819E839083828384839645
:100320008398838A838C839E06D005D004D003D023
:1003300002D001D000D0E552E7CFD9FF1200D9CFCB
:10034000E6FFE1CFD9FFFD0EDBCF06F0FE0EDBCFDF
:1003500007F0040E061801E107501FE0030E06180F
:1003600001E1075015E0020E061801E107500BE00D
:10037000010E061801E1075001E014D08198819A1E
:10038000819C818E0FD08198819A818C819E0AD028
:100390008198818A819C819E05D08188819A819CE7
:1003A000819E00D0FB0EDBCF06F0FC0EDBCF07F00A
:1003B000065001E1075057E0090E061801E1075009
:1003C00051E0080E061801E107504BE0070E061831
:1003D00001E1075045E0060E061801E107503FE035
:1003E000050E061801E1075039E0040E061801E178
:1003F00007502BE0030E061801E107501DE0020E26
:10040000061801E107500FE0010E061801E1075040
:1004100001E02AD083908382838483968398839A91
:10042000839C839E21D08380838283948386838868
:10043000839A838C839E18D083808382838483866F
:100440008398839A838C839E0FD083908382838446
:1004500083968398838A838C839E06D005D004D0AC
:1004600003D002D001D000D0020EE66EAAEC02F05A
:0A047000E552E552E7CFD9FF120074
:06047A00060EF66E000EF6
:10048000F76E000EF86E00010900F550856F090047
:10049000F550866F03E1856701D03DD00900F55026
:1004A000806F0900F550816F0900F550826F0900D7
:1004B0000900F550E96E0900F550EA6E09000900DF
:1004C0000900F550836F0900F550846F0900090099
:1004D000F6CF87F0F7CF88F0F8CF89F080C0F6FF2D
:1004E00081C0F7FF82C0F8FF0001835302E184530B
:1004F00007E00900F550EE6E8307F8E28407F9D7AC
:1005000087C0F6FF88C0F7FF89C0F8FF00018507A4
:08051000000E865BBFD712004C
:08051800000EF36E00EE00F08E
:10052000060E01D81200EA6002D0EE6AFCD7F35042
:08053000E9601200EE6AFCD73D
:0805380015EE00F025EE00F0C5
:10054000F86A0A9C3DEC02F0B8EC02F019EC00F0FD
:04055000FBD71200C3
:0C055400FF0EE3500B6E1B0E00D001D018
:10056000200EE76EE72EFED70B2EFAD700D0120032
:02057000120077
:040572000400000081
:020000040030CA
:0100010006F8
:0100020019E4
:010003001EDE
:010005008179
:010006008178
:00000001FF
