:020000040000FA
:06000000B7EF00F0120052
:020006000000F8
:08000800070EB46E100E926E9B
:10001000010E936E946A956A080E966E0F0EC16E6D
:100020001200F2DF8198819A819C818E8390838275
:10003000838483968398839A839C839E020EE66EC4
:10004000C5EC00F0E5528198819A818C819E838075
:100050008382839483868388839A838C839E020E13
:10006000E66EC5EC00F0E5528198818A819C819E04
:1000700083808382838483868398839A838C839E00
:10008000020EE66EC5EC00F0E5528188819A819CF3
:10009000819E83908382838483968398838A838CD2
:1000A000839E020EE66EC5EC00F0E552BBD712004F
:1000B000060EF66E000EF76E000EF86E00010900D7
:1000C000F550856F0900F550866F03E1856701D013
:1000D0003DD00900F550806F0900F550816F09008F
:1000E000F550826F09000900F550E96E0900F550DE
:1000F000EA6E090009000900F550836F0900F55008
:10010000846F09000900F6CF87F0F7CF88F0F8CFA9
:1001100089F080C0F6FF81C0F7FF82C0F8FF0001C0
:10012000835302E1845307E00900F550EE6E830724
:10013000F8E28407F9D787C0F6FF88C0F7FF89C0C7
:0E014000F8FF00018507000E865BBFD7120096
:02014E00000EA1
:10015000F36E00EE00F0060E01D81200EA6002D045
:0E016000EE6AFCD7F350E9601200EE6AFCD79D
:02016E0015EE8C
:1001700000F025EE00F0F86A019C58EC00F0D3EC9A
:0A01800000F011EC00F0FBD71200B4
:06018A00FF0EE350026EBF
:100190001B0E00D001D0200EE76EE72EFED7022EF8
:0601A000FAD700D01200A6
:0201A600120045
:020000040030CA
:0100010006F8
:0100020019E4
:010003001EDE
:010005008179
:010006008178
:00000001FF
